{
  "abi": [
    {
      "inputs": [],
      "stateMutability": "nonpayable",
      "type": "constructor"
    },
    {
      "anonymous": false,
      "inputs": [
        {
          "indexed": false,
          "internalType": "address",
          "name": "previousAdmin",
          "type": "address"
        },
        {
          "indexed": false,
          "internalType": "address",
          "name": "newAdmin",
          "type": "address"
        }
      ],
      "name": "AdminChanged",
      "type": "event"
    },
    {
      "anonymous": false,
      "inputs": [
        {
          "indexed": true,
          "internalType": "address",
          "name": "beacon",
          "type": "address"
        }
      ],
      "name": "BeaconUpgraded",
      "type": "event"
    },
    {
      "anonymous": false,
      "inputs": [
        {
          "indexed": false,
          "internalType": "uint8",
          "name": "version",
          "type": "uint8"
        }
      ],
      "name": "Initialized",
      "type": "event"
    },
    {
      "anonymous": false,
      "inputs": [
        {
          "indexed": true,
          "internalType": "address",
          "name": "previousOwner",
          "type": "address"
        },
        {
          "indexed": true,
          "internalType": "address",
          "name": "newOwner",
          "type": "address"
        }
      ],
      "name": "OwnershipTransferred",
      "type": "event"
    },
    {
      "anonymous": false,
      "inputs": [
        {
          "indexed": true,
          "internalType": "address",
          "name": "exchange",
          "type": "address"
        },
        {
          "indexed": true,
          "internalType": "address",
          "name": "pool",
          "type": "address"
        }
      ],
      "name": "PoolInit",
      "type": "event"
    },
    {
      "anonymous": false,
      "inputs": [
        {
          "indexed": true,
          "internalType": "address",
          "name": "implementation",
          "type": "address"
        }
      ],
      "name": "Upgraded",
      "type": "event"
    },
    {
      "inputs": [],
      "name": "exchangeManage",
      "outputs": [
        {
          "internalType": "contract ExchangeManage",
          "name": "",
          "type": "address"
        }
      ],
      "stateMutability": "view",
      "type": "function"
    },
    {
      "inputs": [
        {
          "internalType": "address",
          "name": "",
          "type": "address"
        },
        {
          "internalType": "address",
          "name": "",
          "type": "address"
        }
      ],
      "name": "exchangeToPool",
      "outputs": [
        {
          "internalType": "address",
          "name": "",
          "type": "address"
        }
      ],
      "stateMutability": "view",
      "type": "function"
    },
    {
      "inputs": [
        {
          "internalType": "address",
          "name": "_exchangeWallet",
          "type": "address"
        },
        {
          "internalType": "address",
          "name": "_token",
          "type": "address"
        }
      ],
      "name": "getStakingPool",
      "outputs": [
        {
          "internalType": "address",
          "name": "",
          "type": "address"
        }
      ],
      "stateMutability": "view",
      "type": "function"
    },
    {
      "inputs": [
        {
          "internalType": "address",
          "name": "_token",
          "type": "address"
        }
      ],
      "name": "initStakePool",
      "outputs": [
        {
          "internalType": "address",
          "name": "poolAddr",
          "type": "address"
        }
      ],
      "stateMutability": "nonpayable",
      "type": "function"
    },
    {
      "inputs": [],
      "name": "initialize",
      "outputs": [],
      "stateMutability": "nonpayable",
      "type": "function"
    },
    {
      "inputs": [
        {
          "internalType": "address",
          "name": "_exchangeManage",
          "type": "address"
        }
      ],
      "name": "initialize",
      "outputs": [],
      "stateMutability": "nonpayable",
      "type": "function"
    },
    {
      "inputs": [],
      "name": "owner",
      "outputs": [
        {
          "internalType": "address",
          "name": "",
          "type": "address"
        }
      ],
      "stateMutability": "view",
      "type": "function"
    },
    {
      "inputs": [],
      "name": "proxiableUUID",
      "outputs": [
        {
          "internalType": "bytes32",
          "name": "",
          "type": "bytes32"
        }
      ],
      "stateMutability": "view",
      "type": "function"
    },
    {
      "inputs": [],
      "name": "renounceOwnership",
      "outputs": [],
      "stateMutability": "nonpayable",
      "type": "function"
    },
    {
      "inputs": [
        {
          "internalType": "address",
          "name": "newOwner",
          "type": "address"
        }
      ],
      "name": "transferOwnership",
      "outputs": [],
      "stateMutability": "nonpayable",
      "type": "function"
    },
    {
      "inputs": [
        {
          "internalType": "address",
          "name": "newImplementation",
          "type": "address"
        }
      ],
      "name": "upgradeTo",
      "outputs": [],
      "stateMutability": "nonpayable",
      "type": "function"
    },
    {
      "inputs": [
        {
          "internalType": "address",
          "name": "newImplementation",
          "type": "address"
        },
        {
          "internalType": "bytes",
          "name": "data",
          "type": "bytes"
        }
      ],
      "name": "upgradeToAndCall",
      "outputs": [],
      "stateMutability": "payable",
      "type": "function"
    }
  ],
  "bytecode": {
    "object": "0x60a06040523060805234801561001457600080fd5b5061001d61002a565b61002561002a565b6100e9565b600054610100900460ff16156100965760405162461bcd60e51b815260206004820152602760248201527f496e697469616c697a61626c653a20636f6e747261637420697320696e697469604482015266616c697a696e6760c81b606482015260840160405180910390fd5b60005460ff908116146100e7576000805460ff191660ff9081179091556040519081527f7f26b83ff96e1f2b6a682f133852f6798a09c465da95921460cefb38474024989060200160405180910390a15b565b6080516129f7610120600039600081816102b501528181610301015281816103a9015281816103ec015261048801526129f76000f3fe608060405260043610620000b55760003560e01c80638129fc1c116200006c5780638129fc1c146200019b5780638da5cb5b14620001b3578063c0cb559e14620001d3578063c4d66de8146200021c578063ce999a731462000241578063f2fde38b146200028657600080fd5b8063068150b814620000ba5780633659cfe614620000f95780634f1ef286146200012057806352d1902d146200013757806368a6857b146200015e578063715018a61462000183575b600080fd5b348015620000c757600080fd5b5060c954620000dc906001600160a01b031681565b6040516001600160a01b0390911681526020015b60405180910390f35b3480156200010657600080fd5b506200011e6200011836600462000f48565b620002ab565b005b6200011e6200013136600462000f7c565b6200039f565b3480156200014457600080fd5b506200014f6200047b565b604051908152602001620000f0565b3480156200016b57600080fd5b50620000dc6200017d36600462000f48565b62000531565b3480156200019057600080fd5b506200011e6200088b565b348015620001a857600080fd5b506200011e620008a3565b348015620001c057600080fd5b506033546001600160a01b0316620000dc565b348015620001e057600080fd5b50620000dc620001f23660046200104a565b6001600160a01b03918216600090815260ca60209081526040808320938516835292905220541690565b3480156200022957600080fd5b506200011e6200023b36600462000f48565b620009bd565b3480156200024e57600080fd5b50620000dc620002603660046200104a565b60ca6020908152600092835260408084209091529082529020546001600160a01b031681565b3480156200029357600080fd5b506200011e620002a536600462000f48565b620009ea565b6001600160a01b037f0000000000000000000000000000000000000000000000000000000000000000163003620002ff5760405162461bcd60e51b8152600401620002f69062001082565b60405180910390fd5b7f00000000000000000000000000000000000000000000000000000000000000006001600160a01b03166200034a6000805160206200297b833981519152546001600160a01b031690565b6001600160a01b031614620003735760405162461bcd60e51b8152600401620002f690620010ce565b6200037e8162000a66565b604080516000808252602082019092526200039c9183919062000a70565b50565b6001600160a01b037f0000000000000000000000000000000000000000000000000000000000000000163003620003ea5760405162461bcd60e51b8152600401620002f69062001082565b7f00000000000000000000000000000000000000000000000000000000000000006001600160a01b0316620004356000805160206200297b833981519152546001600160a01b031690565b6001600160a01b0316146200045e5760405162461bcd60e51b8152600401620002f690620010ce565b620004698262000a66565b620004778282600162000a70565b5050565b6000306001600160a01b037f000000000000000000000000000000000000000000000000000000000000000016146200051d5760405162461bcd60e51b815260206004820152603860248201527f555550535570677261646561626c653a206d757374206e6f742062652063616c60448201527f6c6564207468726f7567682064656c656761746563616c6c00000000000000006064820152608401620002f6565b506000805160206200297b83398151915290565b60c9546040516358f0900760e01b81523360048201526000916001600160a01b0316906358f0900790602401602060405180830381865afa1580156200057b573d6000803e3d6000fd5b505050506040513d601f19601f82011682018060405250810190620005a191906200111a565b620005ef5760405162461bcd60e51b815260206004820152601b60248201527f45786368616e6765206973206e6f7420696e20746865206c69737400000000006044820152606401620002f6565b60c954604051630b6d9e5360e21b81523360048201526001600160a01b03848116602483015290911690632db6794c90604401602060405180830381865afa15801562000640573d6000803e3d6000fd5b505050506040513d601f19601f820116820180604052508101906200066691906200111a565b620006ad5760405162461bcd60e51b8152602060048201526016602482015275105cdcd95d081a5cc81b9bdd081cdd5c1c1bdc9d195960521b6044820152606401620002f6565b33600090815260ca602090815260408083206001600160a01b0386811685529252909120541615620007315760405162461bcd60e51b815260206004820152602660248201527f506f6f6c20616c7265616479206372656174656420666f7220746869732065786044820152656368616e676560d01b6064820152608401620002f6565b6000604051620007419062000f0f565b604051809103906000f0801580156200075e573d6000803e3d6000fd5b509050600081604051620007729062000f1d565b6001600160a01b039091168152604060208201819052600090820152606001604051809103906000f080158015620007ae573d6000803e3d6000fd5b5060c95460405163c0c53b8b60e01b81523360048201526001600160a01b038781166024830152918216604482015291925082919082169063c0c53b8b90606401600060405180830381600087803b1580156200080a57600080fd5b505af11580156200081f573d6000803e3d6000fd5b505033600081815260ca602090815260408083206001600160a01b038c81168552925280832080546001600160a01b0319169288169283179055519094509192507f69fb19a75f9c9fc2829f6caf738d2e5c712bd83e3cbe2730b95ecc3e43b1cbef91a3949350505050565b6200089562000bed565b620008a1600062000c49565b565b600054610100900460ff1615808015620008c45750600054600160ff909116105b80620008e05750303b158015620008e0575060005460ff166001145b620009455760405162461bcd60e51b815260206004820152602e60248201527f496e697469616c697a61626c653a20636f6e747261637420697320616c72656160448201526d191e481a5b9a5d1a585b1a5e995960921b6064820152608401620002f6565b6000805460ff19166001179055801562000969576000805461ff0019166101001790555b620009743362000c49565b80156200039c576000805461ff0019169055604051600181527f7f26b83ff96e1f2b6a682f133852f6798a09c465da95921460cefb38474024989060200160405180910390a150565b620009c83362000c49565b60c980546001600160a01b0319166001600160a01b0392909216919091179055565b620009f462000bed565b6001600160a01b03811662000a5b5760405162461bcd60e51b815260206004820152602660248201527f4f776e61626c653a206e6577206f776e657220697320746865207a65726f206160448201526564647265737360d01b6064820152608401620002f6565b6200039c8162000c49565b6200039c62000bed565b7f4910fdfa16fed3260ed0e7147f7cc6da11a60208b5b9406d12a635614ffd91435460ff161562000aab5762000aa68362000c9b565b505050565b826001600160a01b03166352d1902d6040518163ffffffff1660e01b8152600401602060405180830381865afa92505050801562000b08575060408051601f3d908101601f1916820190925262000b05918101906200113e565b60015b62000b6d5760405162461bcd60e51b815260206004820152602e60248201527f45524331393637557067726164653a206e657720696d706c656d656e7461746960448201526d6f6e206973206e6f74205555505360901b6064820152608401620002f6565b6000805160206200297b833981519152811462000bdf5760405162461bcd60e51b815260206004820152602960248201527f45524331393637557067726164653a20756e737570706f727465642070726f786044820152681a58589b195555525160ba1b6064820152608401620002f6565b5062000aa683838362000d3a565b6033546001600160a01b03163314620008a15760405162461bcd60e51b815260206004820181905260248201527f4f776e61626c653a2063616c6c6572206973206e6f7420746865206f776e65726044820152606401620002f6565b603380546001600160a01b038381166001600160a01b0319831681179093556040519116919082907f8be0079c531659141344cd1fd0a4f28419497f9722a3daafe3b4186f6b6457e090600090a35050565b6001600160a01b0381163b62000d0a5760405162461bcd60e51b815260206004820152602d60248201527f455243313936373a206e657720696d706c656d656e746174696f6e206973206e60448201526c1bdd08184818dbdb9d1c9858dd609a1b6064820152608401620002f6565b6000805160206200297b83398151915280546001600160a01b0319166001600160a01b0392909216919091179055565b62000d458362000d6b565b60008251118062000d535750805b1562000aa65762000d65838362000dad565b50505050565b62000d768162000c9b565b6040516001600160a01b038216907fbc7cd75a20ee27fd9adebab32041f755214dbc6bffa90cc0225b39da2e5c2d3b90600090a250565b606062000dd583836040518060600160405280602781526020016200299b6027913962000ddc565b9392505050565b6060600080856001600160a01b03168560405162000dfb91906200117e565b600060405180830381855af49150503d806000811462000e38576040519150601f19603f3d011682016040523d82523d6000602084013e62000e3d565b606091505b509150915062000e508683838762000e5a565b9695505050505050565b6060831562000ece57825160000362000ec6576001600160a01b0385163b62000ec65760405162461bcd60e51b815260206004820152601d60248201527f416464726573733a2063616c6c20746f206e6f6e2d636f6e74726163740000006044820152606401620002f6565b508162000eda565b62000eda838362000ee2565b949350505050565b81511562000ef35781518083602001fd5b8060405162461bcd60e51b8152600401620002f691906200119c565b6112b780620011d283390190565b6104f2806200248983390190565b80356001600160a01b038116811462000f4357600080fd5b919050565b60006020828403121562000f5b57600080fd5b62000dd58262000f2b565b634e487b7160e01b600052604160045260246000fd5b6000806040838503121562000f9057600080fd5b62000f9b8362000f2b565b9150602083013567ffffffffffffffff8082111562000fb957600080fd5b818501915085601f83011262000fce57600080fd5b81358181111562000fe35762000fe362000f66565b604051601f8201601f19908116603f011681019083821181831017156200100e576200100e62000f66565b816040528281528860208487010111156200102857600080fd5b8260208601602083013760006020848301015280955050505050509250929050565b600080604083850312156200105e57600080fd5b620010698362000f2b565b9150620010796020840162000f2b565b90509250929050565b6020808252602c908201527f46756e6374696f6e206d7573742062652063616c6c6564207468726f7567682060408201526b19195b1959d85d1958d85b1b60a21b606082015260800190565b6020808252602c908201527f46756e6374696f6e206d7573742062652063616c6c6564207468726f7567682060408201526b6163746976652070726f787960a01b606082015260800190565b6000602082840312156200112d57600080fd5b8151801515811462000dd557600080fd5b6000602082840312156200115157600080fd5b5051919050565b60005b83811015620011755781810151838201526020016200115b565b50506000910152565b600082516200119281846020870162001158565b9190910192915050565b6020815260008251806020840152620011bd81604085016020870162001158565b601f01601f1916919091016040019291505056fe60a06040523060805234801561001457600080fd5b5061001d61002a565b61002561002a565b6100e9565b600054610100900460ff16156100965760405162461bcd60e51b815260206004820152602760248201527f496e697469616c697a61626c653a20636f6e747261637420697320696e697469604482015266616c697a696e6760c81b606482015260840160405180910390fd5b60005460ff908116146100e7576000805460ff191660ff9081179091556040519081527f7f26b83ff96e1f2b6a682f133852f6798a09c465da95921460cefb38474024989060200160405180910390a15b565b608051611197610120600039600081816103da0152818161041a015281816104b9015281816104f9015261058c01526111976000f3fe6080604052600436106100c25760003560e01c80638129fc1c1161007f578063a694fc3a11610059578063a694fc3a146101f1578063c0c53b8b14610211578063f2fde38b14610231578063fc0c546a1461025157600080fd5b80638129fc1c146101915780638da5cb5b146101a65780638da7ad23146101c457600080fd5b8063068150b8146100c75780632e17de78146101045780633659cfe6146101265780634f1ef2861461014657806352d1902d14610159578063715018a61461017c575b600080fd5b3480156100d357600080fd5b5060ca546100e7906001600160a01b031681565b6040516001600160a01b0390911681526020015b60405180910390f35b34801561011057600080fd5b5061012461011f366004610e26565b610271565b005b34801561013257600080fd5b50610124610141366004610e5b565b6103d0565b610124610154366004610e8c565b6104af565b34801561016557600080fd5b5061016e61057f565b6040519081526020016100fb565b34801561018857600080fd5b50610124610632565b34801561019d57600080fd5b50610124610646565b3480156101b257600080fd5b506033546001600160a01b03166100e7565b3480156101d057600080fd5b5061016e6101df366004610e5b565b60cb6020526000908152604090205481565b3480156101fd57600080fd5b5061012461020c366004610e26565b610757565b34801561021d57600080fd5b5061012461022c366004610f4e565b610864565b34801561023d57600080fd5b5061012461024c366004610e5b565b610934565b34801561025d57600080fd5b5060c9546100e7906001600160a01b031681565b33600090815260cb60205260409020548111156102c95760405162461bcd60e51b81526020600482015260116024820152704e6f7420656e6f756768207374616b657360781b60448201526064015b60405180910390fd5b33600090815260cb6020526040812080548392906102e8908490610fa7565b909155505060c95460405163a9059cbb60e01b8152336004820152602481018390526001600160a01b039091169063a9059cbb906044016020604051808303816000875af115801561033e573d6000803e3d6000fd5b505050506040513d601f19601f820116820180604052508101906103629190610fba565b6103a05760405162461bcd60e51b815260206004820152600f60248201526e151c985b9cd9995c8819985a5b1959608a1b60448201526064016102c0565b604051819033907f0f5bb82176feb1b5e747e28471aa92156a04d9f3ab9f45f28e2d704232b93f7590600090a350565b6001600160a01b037f00000000000000000000000000000000000000000000000000000000000000001630036104185760405162461bcd60e51b81526004016102c090610fe3565b7f00000000000000000000000000000000000000000000000000000000000000006001600160a01b031661046160008051602061111b833981519152546001600160a01b031690565b6001600160a01b0316146104875760405162461bcd60e51b81526004016102c09061102f565b610490816109aa565b604080516000808252602082019092526104ac918391906109b2565b50565b6001600160a01b037f00000000000000000000000000000000000000000000000000000000000000001630036104f75760405162461bcd60e51b81526004016102c090610fe3565b7f00000000000000000000000000000000000000000000000000000000000000006001600160a01b031661054060008051602061111b833981519152546001600160a01b031690565b6001600160a01b0316146105665760405162461bcd60e51b81526004016102c09061102f565b61056f826109aa565b61057b828260016109b2565b5050565b6000306001600160a01b037f0000000000000000000000000000000000000000000000000000000000000000161461061f5760405162461bcd60e51b815260206004820152603860248201527f555550535570677261646561626c653a206d757374206e6f742062652063616c60448201527f6c6564207468726f7567682064656c656761746563616c6c000000000000000060648201526084016102c0565b5060008051602061111b83398151915290565b61063a610b22565b6106446000610b7c565b565b600054610100900460ff16158080156106665750600054600160ff909116105b806106805750303b158015610680575060005460ff166001145b6106e35760405162461bcd60e51b815260206004820152602e60248201527f496e697469616c697a61626c653a20636f6e747261637420697320616c72656160448201526d191e481a5b9a5d1a585b1a5e995960921b60648201526084016102c0565b6000805460ff191660011790558015610706576000805461ff0019166101001790555b61070f33610b7c565b80156104ac576000805461ff0019169055604051600181527f7f26b83ff96e1f2b6a682f133852f6798a09c465da95921460cefb38474024989060200160405180910390a150565b33600090815260cb60205260408120805483929061077690849061107b565b909155505060c9546040516323b872dd60e01b8152336004820152306024820152604481018390526001600160a01b03909116906323b872dd906064016020604051808303816000875af11580156107d2573d6000803e3d6000fd5b505050506040513d601f19601f820116820180604052508101906107f69190610fba565b6108345760405162461bcd60e51b815260206004820152600f60248201526e151c985b9cd9995c8819985a5b1959608a1b60448201526064016102c0565b604051819033907f9e71bc8eea02a63969f509818f2dafb9254532904319f9dbda79b67bd34a5f3d90600090a350565b604051630b6d9e5360e21b81526001600160a01b0384811660048301528381166024830152821690632db6794c90604401602060405180830381865afa1580156108b2573d6000803e3d6000fd5b505050506040513d601f19601f820116820180604052508101906108d69190610fba565b6108fc5760405162461bcd60e51b815260206004820152600060248201526044016102c0565b61090583610b7c565b60c980546001600160a01b039384166001600160a01b03199182161790915560ca805492909316911617905550565b61093c610b22565b6001600160a01b0381166109a15760405162461bcd60e51b815260206004820152602660248201527f4f776e61626c653a206e6577206f776e657220697320746865207a65726f206160448201526564647265737360d01b60648201526084016102c0565b6104ac81610b7c565b6104ac610b22565b7f4910fdfa16fed3260ed0e7147f7cc6da11a60208b5b9406d12a635614ffd91435460ff16156109ea576109e583610bce565b505050565b826001600160a01b03166352d1902d6040518163ffffffff1660e01b8152600401602060405180830381865afa925050508015610a44575060408051601f3d908101601f19168201909252610a419181019061108e565b60015b610aa75760405162461bcd60e51b815260206004820152602e60248201527f45524331393637557067726164653a206e657720696d706c656d656e7461746960448201526d6f6e206973206e6f74205555505360901b60648201526084016102c0565b60008051602061111b8339815191528114610b165760405162461bcd60e51b815260206004820152602960248201527f45524331393637557067726164653a20756e737570706f727465642070726f786044820152681a58589b195555525160ba1b60648201526084016102c0565b506109e5838383610c6a565b6033546001600160a01b031633146106445760405162461bcd60e51b815260206004820181905260248201527f4f776e61626c653a2063616c6c6572206973206e6f7420746865206f776e657260448201526064016102c0565b603380546001600160a01b038381166001600160a01b0319831681179093556040519116919082907f8be0079c531659141344cd1fd0a4f28419497f9722a3daafe3b4186f6b6457e090600090a35050565b6001600160a01b0381163b610c3b5760405162461bcd60e51b815260206004820152602d60248201527f455243313936373a206e657720696d706c656d656e746174696f6e206973206e60448201526c1bdd08184818dbdb9d1c9858dd609a1b60648201526084016102c0565b60008051602061111b83398151915280546001600160a01b0319166001600160a01b0392909216919091179055565b610c7383610c95565b600082511180610c805750805b156109e557610c8f8383610cd5565b50505050565b610c9e81610bce565b6040516001600160a01b038216907fbc7cd75a20ee27fd9adebab32041f755214dbc6bffa90cc0225b39da2e5c2d3b90600090a250565b6060610cfa838360405180606001604052806027815260200161113b60279139610d03565b90505b92915050565b6060600080856001600160a01b031685604051610d2091906110cb565b600060405180830381855af49150503d8060008114610d5b576040519150601f19603f3d011682016040523d82523d6000602084013e610d60565b606091505b5091509150610d7186838387610d7b565b9695505050505050565b60608315610dea578251600003610de3576001600160a01b0385163b610de35760405162461bcd60e51b815260206004820152601d60248201527f416464726573733a2063616c6c20746f206e6f6e2d636f6e747261637400000060448201526064016102c0565b5081610df4565b610df48383610dfc565b949350505050565b815115610e0c5781518083602001fd5b8060405162461bcd60e51b81526004016102c091906110e7565b600060208284031215610e3857600080fd5b5035919050565b80356001600160a01b0381168114610e5657600080fd5b919050565b600060208284031215610e6d57600080fd5b610cfa82610e3f565b634e487b7160e01b600052604160045260246000fd5b60008060408385031215610e9f57600080fd5b610ea883610e3f565b9150602083013567ffffffffffffffff80821115610ec557600080fd5b818501915085601f830112610ed957600080fd5b813581811115610eeb57610eeb610e76565b604051601f8201601f19908116603f01168101908382118183101715610f1357610f13610e76565b81604052828152886020848701011115610f2c57600080fd5b8260208601602083013760006020848301015280955050505050509250929050565b600080600060608486031215610f6357600080fd5b610f6c84610e3f565b9250610f7a60208501610e3f565b9150610f8860408501610e3f565b90509250925092565b634e487b7160e01b600052601160045260246000fd5b81810381811115610cfd57610cfd610f91565b600060208284031215610fcc57600080fd5b81518015158114610fdc57600080fd5b9392505050565b6020808252602c908201527f46756e6374696f6e206d7573742062652063616c6c6564207468726f7567682060408201526b19195b1959d85d1958d85b1b60a21b606082015260800190565b6020808252602c908201527f46756e6374696f6e206d7573742062652063616c6c6564207468726f7567682060408201526b6163746976652070726f787960a01b606082015260800190565b80820180821115610cfd57610cfd610f91565b6000602082840312156110a057600080fd5b5051919050565b60005b838110156110c25781810151838201526020016110aa565b50506000910152565b600082516110dd8184602087016110a7565b9190910192915050565b60208152600082518060208401526111068160408501602087016110a7565b601f01601f1916919091016040019291505056fe360894a13ba1a3210667c828492db98dca3e2076cc3735a920a3ca505d382bbc416464726573733a206c6f772d6c6576656c2064656c65676174652063616c6c206661696c6564a26469706673582212203bda19c4616e57701259509a1c6dc7723545d0c3143db838895298456b05402364736f6c63430008130033608060405234801561001057600080fd5b506040516104f23803806104f283398101604081905261002f916102ef565b818161003d82826000610046565b5050505061040c565b61004f83610072565b60008251118061005c5750805b1561006d5761006b83836100b2565b505b505050565b61007b816100de565b6040516001600160a01b038216907fbc7cd75a20ee27fd9adebab32041f755214dbc6bffa90cc0225b39da2e5c2d3b90600090a250565b60606100d783836040518060600160405280602781526020016104cb60279139610191565b9392505050565b6001600160a01b0381163b6101505760405162461bcd60e51b815260206004820152602d60248201527f455243313936373a206e657720696d706c656d656e746174696f6e206973206e60448201526c1bdd08184818dbdb9d1c9858dd609a1b60648201526084015b60405180910390fd5b7f360894a13ba1a3210667c828492db98dca3e2076cc3735a920a3ca505d382bbc80546001600160a01b0319166001600160a01b0392909216919091179055565b6060600080856001600160a01b0316856040516101ae91906103bd565b600060405180830381855af49150503d80600081146101e9576040519150601f19603f3d011682016040523d82523d6000602084013e6101ee565b606091505b5090925090506102008683838761020a565b9695505050505050565b60608315610279578251600003610272576001600160a01b0385163b6102725760405162461bcd60e51b815260206004820152601d60248201527f416464726573733a2063616c6c20746f206e6f6e2d636f6e74726163740000006044820152606401610147565b5081610283565b610283838361028b565b949350505050565b81511561029b5781518083602001fd5b8060405162461bcd60e51b815260040161014791906103d9565b634e487b7160e01b600052604160045260246000fd5b60005b838110156102e65781810151838201526020016102ce565b50506000910152565b6000806040838503121561030257600080fd5b82516001600160a01b038116811461031957600080fd5b60208401519092506001600160401b038082111561033657600080fd5b818501915085601f83011261034a57600080fd5b81518181111561035c5761035c6102b5565b604051601f8201601f19908116603f01168101908382118183101715610384576103846102b5565b8160405282815288602084870101111561039d57600080fd5b6103ae8360208301602088016102cb565b80955050505050509250929050565b600082516103cf8184602087016102cb565b9190910192915050565b60208152600082518060208401526103f88160408501602087016102cb565b601f01601f19169190910160400192915050565b60b18061041a6000396000f3fe608060405236601057600e6013565b005b600e5b601f601b6021565b6058565b565b600060537f360894a13ba1a3210667c828492db98dca3e2076cc3735a920a3ca505d382bbc546001600160a01b031690565b905090565b3660008037600080366000845af43d6000803e8080156076573d6000f35b3d6000fdfea2646970667358221220779bd59336840fead92b9cad70232700ed559609aa2851b17a821c6890f46a2a64736f6c63430008130033416464726573733a206c6f772d6c6576656c2064656c65676174652063616c6c206661696c6564360894a13ba1a3210667c828492db98dca3e2076cc3735a920a3ca505d382bbc416464726573733a206c6f772d6c6576656c2064656c65676174652063616c6c206661696c6564a2646970667358221220fff960cc97a9193e00e7fbe1c5cd1956b87addc9dc4f7997545e397c2e6f007e64736f6c63430008130033",
    "linkReferences": {}
  },
  "methodIdentifiers": {
    "exchangeManage()": "068150b8",
    "exchangeToPool(address,address)": "ce999a73",
    "getStakingPool(address,address)": "c0cb559e",
    "initStakePool(address)": "68a6857b",
    "initialize()": "8129fc1c",
    "initialize(address)": "c4d66de8",
    "owner()": "8da5cb5b",
    "proxiableUUID()": "52d1902d",
    "renounceOwnership()": "715018a6",
    "transferOwnership(address)": "f2fde38b",
    "upgradeTo(address)": "3659cfe6",
    "upgradeToAndCall(address,bytes)": "4f1ef286"
  },
  "id": 45
}